{
  "_format": "hh-sol-artifact-1",
  "contractName": "BatailleNavale",
  "sourceName": "contracts/BattleShipGameV2.sol",
  "abi": [
    {
      "inputs": [
        {
          "internalType": "address",
          "name": "_joueur1",
          "type": "address"
        },
        {
          "internalType": "address",
          "name": "_joueur2",
          "type": "address"
        }
      ],
      "stateMutability": "nonpayable",
      "type": "constructor"
    },
    {
      "anonymous": false,
      "inputs": [
        {
          "indexed": false,
          "internalType": "address",
          "name": "joueur",
          "type": "address"
        },
        {
          "indexed": false,
          "internalType": "uint256",
          "name": "x",
          "type": "uint256"
        },
        {
          "indexed": false,
          "internalType": "uint256",
          "name": "y",
          "type": "uint256"
        },
        {
          "indexed": false,
          "internalType": "enum BatailleNavale.EtatAttaque",
          "name": "etat",
          "type": "uint8"
        }
      ],
      "name": "AttaqueEffectuee",
      "type": "event"
    },
    {
      "anonymous": false,
      "inputs": [
        {
          "indexed": false,
          "internalType": "address",
          "name": "par",
          "type": "address"
        },
        {
          "indexed": false,
          "internalType": "uint256",
          "name": "x",
          "type": "uint256"
        },
        {
          "indexed": false,
          "internalType": "uint256",
          "name": "y",
          "type": "uint256"
        },
        {
          "indexed": false,
          "internalType": "enum BatailleNavale.EtatAttaque",
          "name": "etat",
          "type": "uint8"
        }
      ],
      "name": "EtatAttaqueChange",
      "type": "event"
    },
    {
      "anonymous": false,
      "inputs": [
        {
          "indexed": false,
          "internalType": "uint256",
          "name": "joueurCourant",
          "type": "uint256"
        }
      ],
      "name": "JoueurChange",
      "type": "event"
    },
    {
      "anonymous": false,
      "inputs": [
        {
          "indexed": false,
          "internalType": "address",
          "name": "joueur1",
          "type": "address"
        },
        {
          "indexed": false,
          "internalType": "address",
          "name": "joueur2",
          "type": "address"
        }
      ],
      "name": "PartieCommencee",
      "type": "event"
    },
    {
      "anonymous": false,
      "inputs": [
        {
          "indexed": false,
          "internalType": "address",
          "name": "gagnant",
          "type": "address"
        }
      ],
      "name": "PartieTerminee",
      "type": "event"
    },
    {
      "inputs": [
        {
          "internalType": "uint256",
          "name": "_x",
          "type": "uint256"
        },
        {
          "internalType": "uint256",
          "name": "_y",
          "type": "uint256"
        }
      ],
      "name": "attaquer",
      "outputs": [],
      "stateMutability": "nonpayable",
      "type": "function"
    },
    {
      "inputs": [],
      "name": "commencerPartie",
      "outputs": [],
      "stateMutability": "nonpayable",
      "type": "function"
    },
    {
      "inputs": [],
      "name": "estPartieTerminee",
      "outputs": [
        {
          "internalType": "bool",
          "name": "",
          "type": "bool"
        }
      ],
      "stateMutability": "view",
      "type": "function"
    },
    {
      "inputs": [],
      "name": "etatPartie",
      "outputs": [
        {
          "internalType": "enum BatailleNavale.EtatPartie",
          "name": "",
          "type": "uint8"
        }
      ],
      "stateMutability": "view",
      "type": "function"
    },
    {
      "inputs": [],
      "name": "getJoueurCourant",
      "outputs": [
        {
          "internalType": "address",
          "name": "",
          "type": "address"
        }
      ],
      "stateMutability": "view",
      "type": "function"
    },
    {
      "inputs": [
        {
          "internalType": "uint256",
          "name": "_indexJoueur",
          "type": "uint256"
        }
      ],
      "name": "historiqueAttaques",
      "outputs": [
        {
          "components": [
            {
              "internalType": "uint256",
              "name": "x",
              "type": "uint256"
            },
            {
              "internalType": "uint256",
              "name": "y",
              "type": "uint256"
            },
            {
              "internalType": "enum BatailleNavale.EtatAttaque",
              "name": "etat",
              "type": "uint8"
            }
          ],
          "internalType": "struct BatailleNavale.Attaque[]",
          "name": "",
          "type": "tuple[]"
        }
      ],
      "stateMutability": "view",
      "type": "function"
    },
    {
      "inputs": [],
      "name": "joueurCourant",
      "outputs": [
        {
          "internalType": "uint256",
          "name": "",
          "type": "uint256"
        }
      ],
      "stateMutability": "view",
      "type": "function"
    },
    {
      "inputs": [
        {
          "internalType": "uint256",
          "name": "",
          "type": "uint256"
        }
      ],
      "name": "joueurs",
      "outputs": [
        {
          "internalType": "address",
          "name": "adr",
          "type": "address"
        }
      ],
      "stateMutability": "view",
      "type": "function"
    },
    {
      "inputs": [
        {
          "internalType": "enum BatailleNavale.EtatAttaque",
          "name": "_status",
          "type": "uint8"
        }
      ],
      "name": "setLastAttackStatus",
      "outputs": [],
      "stateMutability": "nonpayable",
      "type": "function"
    }
  ],
  "bytecode": "0x608060405260006004556000600560006101000a81548160ff021916908360028111156200003257620000316200012d565b5b02179055503480156200004457600080fd5b50604051620018733803806200187383398181016040528101906200006a9190620001c6565b81600080600281106200008257620000816200020d565b5b6002020160000160006101000a81548173ffffffffffffffffffffffffffffffffffffffff021916908373ffffffffffffffffffffffffffffffffffffffff160217905550806000600160028110620000e057620000df6200020d565b5b6002020160000160006101000a81548173ffffffffffffffffffffffffffffffffffffffff021916908373ffffffffffffffffffffffffffffffffffffffff16021790555050506200023c565b7f4e487b7100000000000000000000000000000000000000000000000000000000600052602160045260246000fd5b600080fd5b600073ffffffffffffffffffffffffffffffffffffffff82169050919050565b60006200018e8262000161565b9050919050565b620001a08162000181565b8114620001ac57600080fd5b50565b600081519050620001c08162000195565b92915050565b60008060408385031215620001e057620001df6200015c565b5b6000620001f085828601620001af565b92505060206200020385828601620001af565b9150509250929050565b7f4e487b7100000000000000000000000000000000000000000000000000000000600052603260045260246000fd5b611627806200024c6000396000f3fe608060405234801561001057600080fd5b50600436106100935760003560e01c8063980a8e3511610066578063980a8e35146100f85780639cb1f9ef14610128578063afc636e014610158578063dbed13b614610176578063eaba78811461019457610093565b806337edbd6a14610098578063669623b1146100b457806376679c1b146100be578063828f07e2146100da575b600080fd5b6100b260048036038101906100ad9190610d40565b6101b2565b005b6100bc61043a565b005b6100d860048036038101906100d39190610da5565b61058d565b005b6100e261095e565b6040516100ef9190610ded565b60405180910390f35b610112600480360381019061010d9190610e08565b61099b565b60405161011f9190610fac565b60405180910390f35b610142600480360381019061013d9190610e08565b610aa7565b60405161014f919061100f565b60405180910390f35b610160610aeb565b60405161016d9190611072565b60405180910390f35b61017e610afe565b60405161018b919061100f565b60405180910390f35b61019c610b42565b6040516101a9919061109c565b60405180910390f35b6000600454600281106101c8576101c76110b7565b5b6002020160000160009054906101000a900473ffffffffffffffffffffffffffffffffffffffff1673ffffffffffffffffffffffffffffffffffffffff163373ffffffffffffffffffffffffffffffffffffffff161461025d576040517f08c379a000000000000000000000000000000000000000000000000000000000815260040161025490611143565b60405180910390fd5b6001600281111561027157610270610e70565b5b600560009054906101000a900460ff16600281111561029357610292610e70565b5b146102d3576040517f08c379a00000000000000000000000000000000000000000000000000000000081526004016102ca906111af565b60405180910390fd5b600082101580156102e55750600a8211155b80156102f2575060008110155b80156102ff5750600a8111155b61033e576040517f08c379a00000000000000000000000000000000000000000000000000000000081526004016103359061121b565b60405180910390fd5b600060045460028110610354576103536110b7565b5b6002020160010160405180606001604052808481526020018381526020016000600381111561038657610385610e70565b5b8152509080600181540180825580915050600190039060005260206000209060030201600090919091909150600082015181600001556020820151816001015560408201518160020160006101000a81548160ff021916908360038111156103f1576103f0610e70565b5b021790555050507f083fc03d9a86a4b7463455e17ecfbde572ed65648c203978d987cd343009bcbf338383600060405161042e949392919061124a565b60405180910390a15050565b6000600281111561044e5761044d610e70565b5b600560009054906101000a900460ff1660028111156104705761046f610e70565b5b146104b0576040517f08c379a00000000000000000000000000000000000000000000000000000000081526004016104a790611301565b60405180910390fd5b6001600560006101000a81548160ff021916908360028111156104d6576104d5610e70565b5b02179055507f89731e913b55e78787185aa9fada8b7324b8c38a893f8042ca0d77c3db2b9ee3600080600281106105105761050f6110b7565b5b6002020160000160009054906101000a900473ffffffffffffffffffffffffffffffffffffffff16600060016002811061054d5761054c6110b7565b5b6002020160000160009054906101000a900473ffffffffffffffffffffffffffffffffffffffff16604051610583929190611321565b60405180910390a1565b6000600454600281106105a3576105a26110b7565b5b6002020160000160009054906101000a900473ffffffffffffffffffffffffffffffffffffffff1673ffffffffffffffffffffffffffffffffffffffff163373ffffffffffffffffffffffffffffffffffffffff1614610638576040517f08c379a000000000000000000000000000000000000000000000000000000000815260040161062f90611143565b60405180910390fd5b6001600281111561064c5761064b610e70565b5b600560009054906101000a900460ff16600281111561066e5761066d610e70565b5b146106ae576040517f08c379a00000000000000000000000000000000000000000000000000000000081526004016106a5906111af565b60405180910390fd5b600060038111156106c2576106c1610e70565b5b8160038111156106d5576106d4610e70565b5b03610715576040517f08c379a000000000000000000000000000000000000000000000000000000000815260040161070c906113bc565b60405180910390fd5b6000806004546002811061072c5761072b6110b7565b5b600202016001018054905011610777576040517f08c379a000000000000000000000000000000000000000000000000000000000815260040161076e90611428565b60405180910390fd5b6000806004541461078957600061078c565b60015b60ff16905060008082600281106107a6576107a56110b7565b5b600202016001016001600084600281106107c3576107c26110b7565b5b60020201600101805490506107d89190611477565b815481106107e9576107e86110b7565b5b906000526020600020906003020190506000600381111561080d5761080c610e70565b5b8160020160009054906101000a900460ff16600381111561083157610830610e70565b5b14610871576040517f08c379a00000000000000000000000000000000000000000000000000000000081526004016108689061151d565b60405180910390fd5b828160020160006101000a81548160ff0219169083600381111561089857610897610e70565b5b02179055507f9657b2c23cdfc947164aa9823dd655d65ae25a01ebf68c532e652b13018b72ab600083600281106108d2576108d16110b7565b5b6002020160000160009054906101000a900473ffffffffffffffffffffffffffffffffffffffff168260000154836001015486604051610915949392919061124a565b60405180910390a16003808111156109305761092f610e70565b5b83600381111561094357610942610e70565b5b0361095157610950610b48565b5b610959610b98565b505050565b600060028081111561097357610972610e70565b5b600560009054906101000a900460ff16600281111561099557610994610e70565b5b14905090565b6060600282106109e0576040517f08c379a00000000000000000000000000000000000000000000000000000000081526004016109d790611589565b60405180910390fd5b600082600281106109f4576109f36110b7565b5b60020201600101805480602002602001604051908101604052809291908181526020016000905b82821015610a9c578382906000526020600020906003020160405180606001604052908160008201548152602001600182015481526020016002820160009054906101000a900460ff166003811115610a7757610a76610e70565b5b6003811115610a8957610a88610e70565b5b8152505081526020019060010190610a1b565b505050509050919050565b60008160028110610ab757600080fd5b600202016000915090508060000160009054906101000a900473ffffffffffffffffffffffffffffffffffffffff16905081565b600560009054906101000a900460ff1681565b60008060045460028110610b1557610b146110b7565b5b6002020160000160009054906101000a900473ffffffffffffffffffffffffffffffffffffffff16905090565b60045481565b6004546001610b579190611477565b6004819055507fd89d1c0b496b72111b0e7b4652f759f1e7d7ed7a2cda1e3e88a52e73d7ed6db7600454604051610b8e919061109c565b60405180910390a1565b6000805b600060045460028110610bb257610bb16110b7565b5b6002020160010180549050811015610c595760026003811115610bd857610bd7610e70565b5b600060045460028110610bee57610bed6110b7565b5b600202016001018281548110610c0757610c066110b7565b5b906000526020600020906003020160020160009054906101000a900460ff166003811115610c3857610c37610e70565b5b03610c4c578180610c48906115a9565b9250505b8080600101915050610b9c565b5060058110610d02576002600560006101000a81548160ff02191690836002811115610c8857610c87610e70565b5b02179055507f7dc172da7bdb70b391ddb802479ddfceec0b1c3740733a8db971e1abc46d4451600060045460028110610cc457610cc36110b7565b5b6002020160000160009054906101000a900473ffffffffffffffffffffffffffffffffffffffff16604051610cf9919061100f565b60405180910390a15b50565b600080fd5b6000819050919050565b610d1d81610d0a565b8114610d2857600080fd5b50565b600081359050610d3a81610d14565b92915050565b60008060408385031215610d5757610d56610d05565b5b6000610d6585828601610d2b565b9250506020610d7685828601610d2b565b9150509250929050565b60048110610d8d57600080fd5b50565b600081359050610d9f81610d80565b92915050565b600060208284031215610dbb57610dba610d05565b5b6000610dc984828501610d90565b91505092915050565b60008115159050919050565b610de781610dd2565b82525050565b6000602082019050610e026000830184610dde565b92915050565b600060208284031215610e1e57610e1d610d05565b5b6000610e2c84828501610d2b565b91505092915050565b600081519050919050565b600082825260208201905092915050565b6000819050602082019050919050565b610e6a81610d0a565b82525050565b7f4e487b7100000000000000000000000000000000000000000000000000000000600052602160045260246000fd5b60048110610eb057610eaf610e70565b5b50565b6000819050610ec182610e9f565b919050565b6000610ed182610eb3565b9050919050565b610ee181610ec6565b82525050565b606082016000820151610efd6000850182610e61565b506020820151610f106020850182610e61565b506040820151610f236040850182610ed8565b50505050565b6000610f358383610ee7565b60608301905092915050565b6000602082019050919050565b6000610f5982610e35565b610f638185610e40565b9350610f6e83610e51565b8060005b83811015610f9f578151610f868882610f29565b9750610f9183610f41565b925050600181019050610f72565b5085935050505092915050565b60006020820190508181036000830152610fc68184610f4e565b905092915050565b600073ffffffffffffffffffffffffffffffffffffffff82169050919050565b6000610ff982610fce565b9050919050565b61100981610fee565b82525050565b60006020820190506110246000830184611000565b92915050565b6003811061103b5761103a610e70565b5b50565b600081905061104c8261102a565b919050565b600061105c8261103e565b9050919050565b61106c81611051565b82525050565b60006020820190506110876000830184611063565b92915050565b61109681610d0a565b82525050565b60006020820190506110b1600083018461108d565b92915050565b7f4e487b7100000000000000000000000000000000000000000000000000000000600052603260045260246000fd5b600082825260208201905092915050565b7f4365206e276573742070617320766f74726520746f75722e0000000000000000600082015250565b600061112d6018836110e6565b9150611138826110f7565b602082019050919050565b6000602082019050818103600083015261115c81611120565b9050919050565b7f4c6120706172746965206e276573742070617320656e20636f7572732e000000600082015250565b6000611199601d836110e6565b91506111a482611163565b602082019050919050565b600060208201905081810360008301526111c88161118c565b9050919050565b7f436f6f72646f6e6e65657320686f7273206c696d6974652e0000000000000000600082015250565b60006112056018836110e6565b9150611210826111cf565b602082019050919050565b60006020820190508181036000830152611234816111f8565b9050919050565b61124481610ec6565b82525050565b600060808201905061125f6000830187611000565b61126c602083018661108d565b611279604083018561108d565b611286606083018461123b565b95945050505050565b7f4c612070617274696520612064656a6120636f6d6d656e6365206f752065737460008201527f207465726d696e65652e00000000000000000000000000000000000000000000602082015250565b60006112eb602a836110e6565b91506112f68261128f565b604082019050919050565b6000602082019050818103600083015261131a816112de565b9050919050565b60006040820190506113366000830185611000565b6113436020830184611000565b9392505050565b7f4c6520737461747573206e65207065757420706173206574726520496e636f6e60008201527f6e75000000000000000000000000000000000000000000000000000000000000602082015250565b60006113a66022836110e6565b91506113b18261134a565b604082019050919050565b600060208201905081810360008301526113d581611399565b9050919050565b7f417563756e652061747461717565206120646566696e69720000000000000000600082015250565b60006114126018836110e6565b915061141d826113dc565b602082019050919050565b6000602082019050818103600083015261144181611405565b9050919050565b7f4e487b7100000000000000000000000000000000000000000000000000000000600052601160045260246000fd5b600061148282610d0a565b915061148d83610d0a565b92508282039050818111156114a5576114a4611448565b5b92915050565b7f4c2765746174206465206c61206465726e69657265206174746171756520612060008201527f64656a612065746520646566696e690000000000000000000000000000000000602082015250565b6000611507602f836110e6565b9150611512826114ab565b604082019050919050565b60006020820190508181036000830152611536816114fa565b9050919050565b7f496e646578206465206a6f7565757220696e76616c6964652e00000000000000600082015250565b60006115736019836110e6565b915061157e8261153d565b602082019050919050565b600060208201905081810360008301526115a281611566565b9050919050565b60006115b482610d0a565b91507fffffffffffffffffffffffffffffffffffffffffffffffffffffffffffffffff82036115e6576115e5611448565b5b60018201905091905056fea26469706673582212206ec2255ccc7f940502f5bacefb9eb0c5cb26714718fb89e2bd3022360ae31a2d64736f6c63430008180033",
  "linkReferences": {},
  "deployedLinkReferences": {}
}