{
  "_format": "hh-sol-artifact-1",
  "contractName": "BatailleNavale",
  "sourceName": "contracts/BattleShipGameV2.sol",
  "abi": [
    {
      "inputs": [
        {
          "internalType": "address",
          "name": "_joueur1",
          "type": "address"
        },
        {
          "internalType": "address",
          "name": "_joueur2",
          "type": "address"
        }
      ],
      "stateMutability": "nonpayable",
      "type": "constructor"
    },
    {
      "anonymous": false,
      "inputs": [
        {
          "indexed": false,
          "internalType": "address",
          "name": "joueur",
          "type": "address"
        },
        {
          "indexed": false,
          "internalType": "uint256",
          "name": "x",
          "type": "uint256"
        },
        {
          "indexed": false,
          "internalType": "uint256",
          "name": "y",
          "type": "uint256"
        },
        {
          "indexed": false,
          "internalType": "enum BatailleNavale.EtatAttaque",
          "name": "etat",
          "type": "uint8"
        }
      ],
      "name": "AttaqueEffectuee",
      "type": "event"
    },
    {
      "anonymous": false,
      "inputs": [
        {
          "indexed": false,
          "internalType": "address",
          "name": "par",
          "type": "address"
        },
        {
          "indexed": false,
          "internalType": "uint256",
          "name": "x",
          "type": "uint256"
        },
        {
          "indexed": false,
          "internalType": "uint256",
          "name": "y",
          "type": "uint256"
        },
        {
          "indexed": false,
          "internalType": "enum BatailleNavale.EtatAttaque",
          "name": "etat",
          "type": "uint8"
        }
      ],
      "name": "EtatAttaqueChange",
      "type": "event"
    },
    {
      "anonymous": false,
      "inputs": [
        {
          "indexed": false,
          "internalType": "uint256",
          "name": "joueurCourant",
          "type": "uint256"
        }
      ],
      "name": "JoueurChange",
      "type": "event"
    },
    {
      "anonymous": false,
      "inputs": [
        {
          "indexed": false,
          "internalType": "address",
          "name": "joueur1",
          "type": "address"
        },
        {
          "indexed": false,
          "internalType": "address",
          "name": "joueur2",
          "type": "address"
        }
      ],
      "name": "PartieCommencee",
      "type": "event"
    },
    {
      "anonymous": false,
      "inputs": [
        {
          "indexed": false,
          "internalType": "address",
          "name": "gagnant",
          "type": "address"
        }
      ],
      "name": "PartieTerminee",
      "type": "event"
    },
    {
      "inputs": [
        {
          "internalType": "uint256",
          "name": "_x",
          "type": "uint256"
        },
        {
          "internalType": "uint256",
          "name": "_y",
          "type": "uint256"
        }
      ],
      "name": "attaquer",
      "outputs": [],
      "stateMutability": "nonpayable",
      "type": "function"
    },
    {
      "inputs": [],
      "name": "commencerPartie",
      "outputs": [],
      "stateMutability": "nonpayable",
      "type": "function"
    },
    {
      "inputs": [],
      "name": "estLeJoueurCourant",
      "outputs": [
        {
          "internalType": "bool",
          "name": "",
          "type": "bool"
        }
      ],
      "stateMutability": "view",
      "type": "function"
    },
    {
      "inputs": [],
      "name": "estPartieTerminee",
      "outputs": [
        {
          "internalType": "bool",
          "name": "",
          "type": "bool"
        }
      ],
      "stateMutability": "view",
      "type": "function"
    },
    {
      "inputs": [],
      "name": "etatPartie",
      "outputs": [
        {
          "internalType": "enum BatailleNavale.EtatPartie",
          "name": "",
          "type": "uint8"
        }
      ],
      "stateMutability": "view",
      "type": "function"
    },
    {
      "inputs": [
        {
          "internalType": "uint256",
          "name": "_indexJoueur",
          "type": "uint256"
        }
      ],
      "name": "historiqueAttaques",
      "outputs": [
        {
          "components": [
            {
              "internalType": "uint256",
              "name": "x",
              "type": "uint256"
            },
            {
              "internalType": "uint256",
              "name": "y",
              "type": "uint256"
            },
            {
              "internalType": "enum BatailleNavale.EtatAttaque",
              "name": "etat",
              "type": "uint8"
            }
          ],
          "internalType": "struct BatailleNavale.Attaque[]",
          "name": "",
          "type": "tuple[]"
        }
      ],
      "stateMutability": "view",
      "type": "function"
    },
    {
      "inputs": [],
      "name": "joueurCourant",
      "outputs": [
        {
          "internalType": "uint256",
          "name": "",
          "type": "uint256"
        }
      ],
      "stateMutability": "view",
      "type": "function"
    },
    {
      "inputs": [
        {
          "internalType": "uint256",
          "name": "",
          "type": "uint256"
        }
      ],
      "name": "joueurs",
      "outputs": [
        {
          "internalType": "address",
          "name": "adr",
          "type": "address"
        }
      ],
      "stateMutability": "view",
      "type": "function"
    },
    {
      "inputs": [
        {
          "internalType": "enum BatailleNavale.EtatAttaque",
          "name": "_status",
          "type": "uint8"
        }
      ],
      "name": "setLastAttackStatus",
      "outputs": [],
      "stateMutability": "nonpayable",
      "type": "function"
    }
  ],
  "bytecode": "0x608060405260006004556000600560006101000a81548160ff021916908360028111156200003257620000316200012d565b5b02179055503480156200004457600080fd5b50604051620018a1380380620018a183398181016040528101906200006a9190620001c6565b81600080600281106200008257620000816200020d565b5b6002020160000160006101000a81548173ffffffffffffffffffffffffffffffffffffffff021916908373ffffffffffffffffffffffffffffffffffffffff160217905550806000600160028110620000e057620000df6200020d565b5b6002020160000160006101000a81548173ffffffffffffffffffffffffffffffffffffffff021916908373ffffffffffffffffffffffffffffffffffffffff16021790555050506200023c565b7f4e487b7100000000000000000000000000000000000000000000000000000000600052602160045260246000fd5b600080fd5b600073ffffffffffffffffffffffffffffffffffffffff82169050919050565b60006200018e8262000161565b9050919050565b620001a08162000181565b8114620001ac57600080fd5b50565b600081519050620001c08162000195565b92915050565b60008060408385031215620001e057620001df6200015c565b5b6000620001f085828601620001af565b92505060206200020385828601620001af565b9150509250929050565b7f4e487b7100000000000000000000000000000000000000000000000000000000600052603260045260246000fd5b611655806200024c6000396000f3fe608060405234801561001057600080fd5b50600436106100935760003560e01c8063980a8e3511610066578063980a8e35146100f85780639cb1f9ef14610128578063afc636e014610158578063dc70af5014610176578063eaba78811461019457610093565b806337edbd6a14610098578063669623b1146100b457806376679c1b146100be578063828f07e2146100da575b600080fd5b6100b260048036038101906100ad9190610d6e565b6101b2565b005b6100bc61043a565b005b6100d860048036038101906100d39190610dd3565b61058d565b005b6100e261095e565b6040516100ef9190610e1b565b60405180910390f35b610112600480360381019061010d9190610e36565b61099b565b60405161011f9190610fda565b60405180910390f35b610142600480360381019061013d9190610e36565b610aa7565b60405161014f919061103d565b60405180910390f35b610160610aeb565b60405161016d91906110a0565b60405180910390f35b61017e610afe565b60405161018b9190610e1b565b60405180910390f35b61019c610b70565b6040516101a991906110ca565b60405180910390f35b6000600454600281106101c8576101c76110e5565b5b6002020160000160009054906101000a900473ffffffffffffffffffffffffffffffffffffffff1673ffffffffffffffffffffffffffffffffffffffff163373ffffffffffffffffffffffffffffffffffffffff161461025d576040517f08c379a000000000000000000000000000000000000000000000000000000000815260040161025490611171565b60405180910390fd5b6001600281111561027157610270610e9e565b5b600560009054906101000a900460ff16600281111561029357610292610e9e565b5b146102d3576040517f08c379a00000000000000000000000000000000000000000000000000000000081526004016102ca906111dd565b60405180910390fd5b600082101580156102e55750600a8211155b80156102f2575060008110155b80156102ff5750600a8111155b61033e576040517f08c379a000000000000000000000000000000000000000000000000000000000815260040161033590611249565b60405180910390fd5b600060045460028110610354576103536110e5565b5b6002020160010160405180606001604052808481526020018381526020016000600381111561038657610385610e9e565b5b8152509080600181540180825580915050600190039060005260206000209060030201600090919091909150600082015181600001556020820151816001015560408201518160020160006101000a81548160ff021916908360038111156103f1576103f0610e9e565b5b021790555050507f083fc03d9a86a4b7463455e17ecfbde572ed65648c203978d987cd343009bcbf338383600060405161042e9493929190611278565b60405180910390a15050565b6000600281111561044e5761044d610e9e565b5b600560009054906101000a900460ff1660028111156104705761046f610e9e565b5b146104b0576040517f08c379a00000000000000000000000000000000000000000000000000000000081526004016104a79061132f565b60405180910390fd5b6001600560006101000a81548160ff021916908360028111156104d6576104d5610e9e565b5b02179055507f89731e913b55e78787185aa9fada8b7324b8c38a893f8042ca0d77c3db2b9ee3600080600281106105105761050f6110e5565b5b6002020160000160009054906101000a900473ffffffffffffffffffffffffffffffffffffffff16600060016002811061054d5761054c6110e5565b5b6002020160000160009054906101000a900473ffffffffffffffffffffffffffffffffffffffff1660405161058392919061134f565b60405180910390a1565b6000600454600281106105a3576105a26110e5565b5b6002020160000160009054906101000a900473ffffffffffffffffffffffffffffffffffffffff1673ffffffffffffffffffffffffffffffffffffffff163373ffffffffffffffffffffffffffffffffffffffff1614610638576040517f08c379a000000000000000000000000000000000000000000000000000000000815260040161062f90611171565b60405180910390fd5b6001600281111561064c5761064b610e9e565b5b600560009054906101000a900460ff16600281111561066e5761066d610e9e565b5b146106ae576040517f08c379a00000000000000000000000000000000000000000000000000000000081526004016106a5906111dd565b60405180910390fd5b600060038111156106c2576106c1610e9e565b5b8160038111156106d5576106d4610e9e565b5b03610715576040517f08c379a000000000000000000000000000000000000000000000000000000000815260040161070c906113ea565b60405180910390fd5b6000806004546002811061072c5761072b6110e5565b5b600202016001018054905011610777576040517f08c379a000000000000000000000000000000000000000000000000000000000815260040161076e90611456565b60405180910390fd5b6000806004541461078957600061078c565b60015b60ff16905060008082600281106107a6576107a56110e5565b5b600202016001016001600084600281106107c3576107c26110e5565b5b60020201600101805490506107d891906114a5565b815481106107e9576107e86110e5565b5b906000526020600020906003020190506000600381111561080d5761080c610e9e565b5b8160020160009054906101000a900460ff16600381111561083157610830610e9e565b5b14610871576040517f08c379a00000000000000000000000000000000000000000000000000000000081526004016108689061154b565b60405180910390fd5b828160020160006101000a81548160ff0219169083600381111561089857610897610e9e565b5b02179055507f9657b2c23cdfc947164aa9823dd655d65ae25a01ebf68c532e652b13018b72ab600083600281106108d2576108d16110e5565b5b6002020160000160009054906101000a900473ffffffffffffffffffffffffffffffffffffffff1682600001548360010154866040516109159493929190611278565b60405180910390a16003808111156109305761092f610e9e565b5b83600381111561094357610942610e9e565b5b0361095157610950610b76565b5b610959610bc6565b505050565b600060028081111561097357610972610e9e565b5b600560009054906101000a900460ff16600281111561099557610994610e9e565b5b14905090565b6060600282106109e0576040517f08c379a00000000000000000000000000000000000000000000000000000000081526004016109d7906115b7565b60405180910390fd5b600082600281106109f4576109f36110e5565b5b60020201600101805480602002602001604051908101604052809291908181526020016000905b82821015610a9c578382906000526020600020906003020160405180606001604052908160008201548152602001600182015481526020016002820160009054906101000a900460ff166003811115610a7757610a76610e9e565b5b6003811115610a8957610a88610e9e565b5b8152505081526020019060010190610a1b565b505050509050919050565b60008160028110610ab757600080fd5b600202016000915090508060000160009054906101000a900473ffffffffffffffffffffffffffffffffffffffff16905081565b600560009054906101000a900460ff1681565b60008060045460028110610b1557610b146110e5565b5b6002020160000160009054906101000a900473ffffffffffffffffffffffffffffffffffffffff1673ffffffffffffffffffffffffffffffffffffffff163373ffffffffffffffffffffffffffffffffffffffff1614905090565b60045481565b6004546001610b8591906114a5565b6004819055507fd89d1c0b496b72111b0e7b4652f759f1e7d7ed7a2cda1e3e88a52e73d7ed6db7600454604051610bbc91906110ca565b60405180910390a1565b6000805b600060045460028110610be057610bdf6110e5565b5b6002020160010180549050811015610c875760026003811115610c0657610c05610e9e565b5b600060045460028110610c1c57610c1b6110e5565b5b600202016001018281548110610c3557610c346110e5565b5b906000526020600020906003020160020160009054906101000a900460ff166003811115610c6657610c65610e9e565b5b03610c7a578180610c76906115d7565b9250505b8080600101915050610bca565b5060058110610d30576002600560006101000a81548160ff02191690836002811115610cb657610cb5610e9e565b5b02179055507f7dc172da7bdb70b391ddb802479ddfceec0b1c3740733a8db971e1abc46d4451600060045460028110610cf257610cf16110e5565b5b6002020160000160009054906101000a900473ffffffffffffffffffffffffffffffffffffffff16604051610d27919061103d565b60405180910390a15b50565b600080fd5b6000819050919050565b610d4b81610d38565b8114610d5657600080fd5b50565b600081359050610d6881610d42565b92915050565b60008060408385031215610d8557610d84610d33565b5b6000610d9385828601610d59565b9250506020610da485828601610d59565b9150509250929050565b60048110610dbb57600080fd5b50565b600081359050610dcd81610dae565b92915050565b600060208284031215610de957610de8610d33565b5b6000610df784828501610dbe565b91505092915050565b60008115159050919050565b610e1581610e00565b82525050565b6000602082019050610e306000830184610e0c565b92915050565b600060208284031215610e4c57610e4b610d33565b5b6000610e5a84828501610d59565b91505092915050565b600081519050919050565b600082825260208201905092915050565b6000819050602082019050919050565b610e9881610d38565b82525050565b7f4e487b7100000000000000000000000000000000000000000000000000000000600052602160045260246000fd5b60048110610ede57610edd610e9e565b5b50565b6000819050610eef82610ecd565b919050565b6000610eff82610ee1565b9050919050565b610f0f81610ef4565b82525050565b606082016000820151610f2b6000850182610e8f565b506020820151610f3e6020850182610e8f565b506040820151610f516040850182610f06565b50505050565b6000610f638383610f15565b60608301905092915050565b6000602082019050919050565b6000610f8782610e63565b610f918185610e6e565b9350610f9c83610e7f565b8060005b83811015610fcd578151610fb48882610f57565b9750610fbf83610f6f565b925050600181019050610fa0565b5085935050505092915050565b60006020820190508181036000830152610ff48184610f7c565b905092915050565b600073ffffffffffffffffffffffffffffffffffffffff82169050919050565b600061102782610ffc565b9050919050565b6110378161101c565b82525050565b6000602082019050611052600083018461102e565b92915050565b6003811061106957611068610e9e565b5b50565b600081905061107a82611058565b919050565b600061108a8261106c565b9050919050565b61109a8161107f565b82525050565b60006020820190506110b56000830184611091565b92915050565b6110c481610d38565b82525050565b60006020820190506110df60008301846110bb565b92915050565b7f4e487b7100000000000000000000000000000000000000000000000000000000600052603260045260246000fd5b600082825260208201905092915050565b7f4365206e276573742070617320766f74726520746f75722e0000000000000000600082015250565b600061115b601883611114565b915061116682611125565b602082019050919050565b6000602082019050818103600083015261118a8161114e565b9050919050565b7f4c6120706172746965206e276573742070617320656e20636f7572732e000000600082015250565b60006111c7601d83611114565b91506111d282611191565b602082019050919050565b600060208201905081810360008301526111f6816111ba565b9050919050565b7f436f6f72646f6e6e65657320686f7273206c696d6974652e0000000000000000600082015250565b6000611233601883611114565b915061123e826111fd565b602082019050919050565b6000602082019050818103600083015261126281611226565b9050919050565b61127281610ef4565b82525050565b600060808201905061128d600083018761102e565b61129a60208301866110bb565b6112a760408301856110bb565b6112b46060830184611269565b95945050505050565b7f4c612070617274696520612064656a6120636f6d6d656e6365206f752065737460008201527f207465726d696e65652e00000000000000000000000000000000000000000000602082015250565b6000611319602a83611114565b9150611324826112bd565b604082019050919050565b600060208201905081810360008301526113488161130c565b9050919050565b6000604082019050611364600083018561102e565b611371602083018461102e565b9392505050565b7f4c6520737461747573206e65207065757420706173206574726520496e636f6e60008201527f6e75000000000000000000000000000000000000000000000000000000000000602082015250565b60006113d4602283611114565b91506113df82611378565b604082019050919050565b60006020820190508181036000830152611403816113c7565b9050919050565b7f417563756e652061747461717565206120646566696e69720000000000000000600082015250565b6000611440601883611114565b915061144b8261140a565b602082019050919050565b6000602082019050818103600083015261146f81611433565b9050919050565b7f4e487b7100000000000000000000000000000000000000000000000000000000600052601160045260246000fd5b60006114b082610d38565b91506114bb83610d38565b92508282039050818111156114d3576114d2611476565b5b92915050565b7f4c2765746174206465206c61206465726e69657265206174746171756520612060008201527f64656a612065746520646566696e690000000000000000000000000000000000602082015250565b6000611535602f83611114565b9150611540826114d9565b604082019050919050565b6000602082019050818103600083015261156481611528565b9050919050565b7f496e646578206465206a6f7565757220696e76616c6964652e00000000000000600082015250565b60006115a1601983611114565b91506115ac8261156b565b602082019050919050565b600060208201905081810360008301526115d081611594565b9050919050565b60006115e282610d38565b91507fffffffffffffffffffffffffffffffffffffffffffffffffffffffffffffffff820361161457611613611476565b5b60018201905091905056fea2646970667358221220d906caaadf10df22259de03be2024ebc9a7aadae2d2da7a0248801783c5acead64736f6c63430008180033",
  "linkReferences": {},
  "deployedLinkReferences": {}
}